:100000000C9434000C9449000C9449000C94490061
:100010000C9449000C9449000C9449000C9449003C
:100020000C9449000C9449000C9449000C9449002C
:100030000C9449000C9449000C9449000C9449001C
:100040000C9449000C9449000C9449000C9449000C
:100050000C9449000C9449000C9449000C944900FC
:100060000C9449000C94490011241FBECFEFD8E036
:10007000DEBFCDBF11E0A0E0B1E0ECEAF1E002C0EC
:1000800005900D92A430B107D9F70E944D000C9451
:10009000D4000C9400000000FFCFEF92FF920F936A
:1000A0001F93259A1092C50087E68093C40088E1CB
:1000B0008093C10086E08093C2001092B80088E46B
:1000C0008093B8001092B90084E08093B80091E06A
:1000D00021E131E840E050E06AE1E6E0F0E02D9A0D
:1000E0008091C00080728030D9F39093C6008DB1AA
:1000F0008823EAF72FB93093B30084E08093B800E7
:100100008091B9008823E2F71092B3008091B90082
:100110008823E2F77091B300DA018A010FC0817081
:10012000AF5FBF4F0F4F1F4FE0900201F0900301F0
:10013000E0900001F0900101803041F081E0AF37A4
:10014000B6070E071F0758F3812DE9CF2D98809130
:10015000C00080728030D9F31092C6008DB1882320
:10016000EAF78FB1DA018A010FC08170AF5FBF4F2C
:100170000F4F1F4FE0900201F0900301E09000014B
:10018000F0900101803041F081E0AF37B6070E07F3
:100190001F0758F3812DE9CF8091C0008072803015
:0C01A000D9F37093C6009BCFF894FFCFFA
:0401AC00000000004F
:00000001FF
