:100000000C9434000C9449000C9449000C94490061
:100010000C9449000C9449000C9449000C9449003C
:100020000C9449000C9449000C9449000C9449002C
:100030000C9449000C9449000C9449000C9449001C
:100040000C9449000C9449000C9449000C9449000C
:100050000C9449000C9449000C9449000C944900FC
:100060000C9449000C94490011241FBECFEFD8E036
:10007000DEBFCDBF11E0A0E0B1E0E8E1F1E002C0F9
:1000800005900D92A430B107D9F70E944D000C9451
:100090008A000C9400000000FFCF259A80E090E0D9
:1000A0002AE146E050E02D9ABC01FC010FC03170FE
:1000B0006F5F7F4FEF4FFF4FA0910201B09103019F
:1000C000A0910001B0910101303041F031E06F3773
:1000D0007207E407F50758F3312DE9CF2D98BC01DD
:1000E000FC0110C031706F5F7F4FEF4FFF4FA09149
:1000F0000201B0910301A0910001B09101013030E3
:1001000009F4D1CF31E06F377207E407F50750F3F8
:08011000312DE8CFF894FFCF78
:0401180000000000E3
:00000001FF
