:100000000C9434000C943E000C943E000C943E0082
:100010000C943E000C943E000C943E000C943E0068
:100020000C943E000C943E000C943E000C943E0058
:100030000C943E000C943E000C943E000C943E0048
:100040000C943E000C943E000C943E000C943E0038
:100050000C943E000C943E000C943E000C943E0028
:100060000C943E000C943E0011241FBECFEFD8E04C
:10007000DEBFCDBF0E9441000C9479000C940000BB
:10008000FFCFCF93DF93CDB7DEB721970FB6F894AC
:10009000DEBF0FBECDBF229A2A9A84B1807F84B979
:1000A00063B16695669566956170698375B180E008
:1000B00090E026E841E050E0372F01C0732F6170D7
:1000C000387F603011F47460372F35B9FC01DC01E2
:1000D00008C07170EF5FFF4FAF4FBF4F6981703045
:1000E00069F371E0EF39F207A407B50790F3712DBA
:0600F000F0CFF894FFCFF1
:00000001FF
