:100000000C9434000C9449000C9449000C94490061
:100010000C9449000C9449000C9449000C9449003C
:100020000C9449000C9449000C9449000C9449002C
:100030000C9449000C9449000C9449000C9449001C
:100040000C9449000C9449000C9449000C9449000C
:100050000C9449000C9449000C9449000C944900FC
:100060000C9449000C94490011241FBECFEFD8E036
:10007000DEBFCDBF11E0A0E0B1E0ECE9F1E002C0ED
:1000800005900D92A430B107D9F70E94CA000C94D4
:10009000CC000C9400000000EF92FF920F931F938E
:1000A000259A1092C50087E68093C40088E180936A
:1000B000C10086E08093C2001092B80088E480936B
:1000C000B8001092B90084E08093B80091E021E874
:1000D00040E050E03AE166E070E02D9AE091C00027
:1000E000E072E030D9F39093C6002093B300809380
:1000F000B800E091B900EE23E2F71092B300E0916E
:10010000B900EE23E2F7E091B300DA018A010FC0F3
:10011000F170AF5FBF4F0F4F1F4FE0900201F090A3
:100120000301E0900001F0900101F03041F0F1E0B6
:10013000AF37B3070607170758F3F12DE9CF2D980E
:10014000F091C000F072F030D9F31092C600DA01DD
:100150008A010FC0F170AF5FBF4F0F4F1F4FE0908C
:100160000201F0900301E0900001F0900101F030F5
:1001700041F0F1E0AF37B3070607170758F3F12D49
:10018000E9CFF091C000F072F030D9F3E093C600EF
:0C019000A4CFFFCF0E944C00F894FFCFDA
:04019C00000000005F
:00000001FF
