:100000000C9434000C9449000C9449000C94490061
:100010000C9449000C9449000C9449000C9449003C
:100020000C9449000C9449000C9449000C9449002C
:100030000C9449000C9449000C9449000C9449001C
:100040000C9449000C9449000C9449000C9449000C
:100050000C9449000C9449000C9449000C944900FC
:100060000C9449000C94490011241FBECFEFD8E036
:10007000DEBFCDBF11E0A0E0B1E0E8E6F1E002C0F4
:1000800005900D92A430B107D9F70E944D000C9451
:10009000B2000C9400000000FFCF0F931F93259A2D
:1000A0001092C50087E68093C40088E18093C10068
:1000B00086E08093C20081E58CBD81E091E120E083
:1000C00030E04AE166E070E02D9A5091C000507235
:1000D0005030D9F38093C6009EBD5DB55523EAF735
:1000E000F901D9010FC05170EF5FFF4FAF4FBF4F04
:1000F0000091020110910301009100011091010192
:10010000503041F051E0EF37F407A607B70758F336
:10011000512DE9CF2D985091C00050725030D9F335
:100120001092C6001EBC5DB55523EAF75EB5F90115
:10013000D90110C05170EF5FFF4FAF4FBF4F00911B
:100140000201109103010091000110910101503052
:1001500009F4BACF51E0EF37F407A607B70750F319
:08016000512DE8CFF894FFCF08
:040168000000000093
:00000001FF
